:020000040800F2
:10000000B80B002071020008A1860008A386000832
:10001000A7860008AB860008AF8600080000000035
:10002000000000000000000000000000B38600088F
:10003000B586000800000000B7860008B9860008F1
:100040008B0200088B0200088B0200088B0200085C
:100050008B0200088B020008C15500088B020008C3
:100060008B0200088B0200088B0200088B0200083C
:100070008B0200088B0200088B0200088B0200082C
:100080008B0200088B0200088B0200088B0200081C
:10009000152F00088B0200088B0200088B02000855
:1000A0008B0200088B0200088B0200088B020008FC
:1000B000574C00088B020008774300088B020008A9
:1000C0008B0200088B0200088B0200088B020008DC
:1000D0008B020008032D0008FB5900088B02000862
:1000E0008B0200088B0200088B0200088B020008BC
:1000F0008B0200088B0200088B0200088B020008AC
:100100008B0200088B02000849A000088B0200083F
:100110008B020008A16D00088B0200088B0200080A
:100120008B0200088B0200088B0200088B0200087B
:100130008B0200088B0200088B0200088B0200086B
:100140008B0200088B0200088B0200088B0200085B
:100150008B0200088B0200088B0200088B0200084B
:100160008B0200088B0200088B0200088B0200083B
:100170008B0200088B0200088B0200088B0200082B
:100180008B0200088B02000800F002F800F061F812
:100190000AA090E8000C82448344AAF10107DA45E2
:1001A00001D100F056F8AFF2090EBAE80F0013F0D3
:1001B000010F18BFFB1A43F00103184724D50000B4
:1001C00044D500000A444FF0000C10F8013B13F036
:1001D000070408BF10F8014B1D1108BF10F8015BA0
:1001E000641E05D010F8016B641E01F8016BF9D193
:1001F00013F0080F1EBF10F8014BAD1C0C1B09D1EA
:100200006D1E58BF01F801CBFAD505E014F8016B5B
:1002100001F8016B6D1EF9D59142D6D370470000ED
:100220000023002400250026103A28BF78C1FBD8FF
:10023000520728BF30C148BF0B60704764290AF0DD
:100240000F85002070471FB50CF073FD1FBD10B562
:1002500010BD0AF08FFE1146FFF7F5FF07F060FEB4
:100260000AF0ADFE03B4FFF7F2FF03BC02F03AFC64
:100270000948804709480047FEE7FEE7FEE7FEE73A
:10028000FEE7FEE7FEE7FEE7FEE7FEE70448054976
:10029000054A064B7047000099870008890100084D
:1002A000B8050020B80B0020B8070020B8070020D0
:1002B00032490143324A1160704770B50021002372
:1002C0000F22C4781CB32E4C246804F4E064C4F5F7
:1002D000E064C4F30721C1F10404E3B20A414478A5
:1002E0009C40E1B28478144021430C07210E254C38
:1002F00005786155047804F01F050124AC400578A9
:100300006D11AD0005F1E025C5F8004109E0047864
:1003100004F01F050124AC401B4D0678761145F80A
:10032000264070BD194A0A400243154B1B1F1A6034
:10033000704739B1124A121D12680243104B1B1D3F
:100340001A6006E00E4A121D126882430C4B1B1DF8
:100350001A607047042808D14FF0E021096941F084
:1003600004014FF0E022116107E04FF0E02109693C
:1003700021F004014FF0E022116170470000FA05FE
:100380000CED00E000E400E080E100E080FFFF1FF2
:1003900010B50446FE48844209D10121480601F007
:1003A00039F900214FF0007001F034F908E0012123
:1003B000880601F02FF900214FF0806001F02AF942
:1003C00010BD30B5024600200023146824F002045A
:1003D0001460146844F00104146000E05B1C54686D
:1003E00004F001041CB94FF6FF74A342F6D154681F
:1003F00004F001040CB900206CE08C79012C04D1CC
:10040000146844F08004146003E0146824F080044D
:100410001460CC79012C04D1146844F040041460B9
:1004200003E0146824F0400414600C7A012C04D119
:10043000146844F02004146003E0146824F02004DD
:1004400014604C7A012C04D1146844F01004146038
:1004500003E0146824F0100414608C7A012C04D199
:10046000146844F00804146003E0146824F00804DD
:100470001460CC7A012C04D1146844F00404146094
:1004800003E0146824F0040414608C78A407CD7889
:1004900044EA05640D7944EA05444D7944EA05547B
:1004A0000D886D1E2C43D461146824F0010414607F
:1004B000002300E05B1C546804F001041CB14FF6FB
:1004C000FF74A342F6D1546804F001040CB100207B
:1004D00000E0012030BD10B50021837A012202FA2C
:1004E00003F1AC4A126842F00102AA4B1A60A94A11
:1004F0001C3212688A43A74B1C331A60027BCAB9AC
:10050000A44A0C3212688A43A24B0C331A60428808
:10051000C38842EA03439F4A4032847A42F8343027
:100520000288838842EA03439A4A4032847A02EB83
:10053000C4025360027B012A19D1964A0C32126818
:100540000A43944B0C331A604288038842EA0343FF
:10055000904A4032847A42F83430C288838842EA32
:1005600003438C4A4032847A02EBC4025360C27A5D
:100570003AB9884A121D12688A43864B1B1D1A60BD
:1005800006E0844A121D12680A43824B1B1D1A6042
:10059000028932B97F4A143212688A437D4B143380
:1005A0001A600289012A06D17A4A143212680A4373
:1005B000784B14331A60427B012A06D1754A1C32EB
:1005C00012680A43734B1C331A60724A126822F095
:1005D0000102704B1A6010BD00218171C17101725E
:1005E00041728172C1728170C17003210171022157
:1005F00041710121018070476649096841F001019C
:10060000644A11601146096843F60E729143614ACB
:1006100011601146096841EA00211160114609681C
:1006200021F001011160704721B1026842F480326B
:10063000026003E0026822F4803202607047E1B198
:10064000026842F0800202604FF4C272125842F413
:1006500080734FF4C27213504FF4CA72125842F4AE
:1006600080734FF4CA7213504FF4D272125842F48E
:1006700080734FF4D27213501BE0026822F08002A4
:1006800002604FF4C272125822F480734FF4C272A7
:1006900013504FF4CA72125822F480734FF4CA7286
:1006A00013504FF4D272125822F480734FF4D27266
:1006B0001350704710B502460020936803F0806322
:1006C000B3F1806F00D110E0936803F00063B3F1E1
:1006D000006F01D1012008E0936803F08053B3F16B
:1006E000805F01D1022000E00420042879D002F5C7
:1006F000C07303EB00131B6803F0010402F5C07321
:1007000003EB00131C600B7A7BB94B7A0C8843EA2D
:10071000445302F5C07404EB00142468234302F52B
:10072000C07404EB0014236010E00B7A4C6843EAB9
:10073000C4034C7A234302F5C07404EB001424680C
:10074000234302F5C07404EB001423608B7A03F09A
:100750000F038B7202F5C07303EB00135B6823F089
:100760000F0402F5C07303EB00135C6002F5C07365
:1007700003EB00135B688C7A234302F5C07404EB2F
:10078000001463608B7B1C064B7B44EA034403E04C
:1007900000640040006600400B7B44EA0323CC7AEF
:1007A000234302F5C07404EB0014A3608B7C1C0689
:1007B0004B7C44EA03440B7C44EA0323CC7B234375
:1007C00002F5C07404EB0014E36002F5C07303EBA0
:1007D00000131B6843F0010402F5C07303EB001320
:1007E0001C6010BD10B50246002321B1012907D0BD
:1007F00002290FD109E09068F94C00EA04030BE0EC
:100800009068F84C00EA040306E09068F64C00EAB1
:10081000040301E0002300BF00BFF44C181BA342F7
:1008200016D007DC83B16FF08060184470B10228E5
:1008300018D111E0B0F5007F10D0ED4C204448B144
:10084000B0F5003F0ED10BE002230DE000230BE0DA
:10085000002309E0002307E0012305E0012303E072
:10086000012301E0002300BF00BFD8B210BD21B1B9
:10087000012907D002290FD109E0826842F08002E5
:1008800082600AE0826842F40042826005E0826889
:1008900042F40002826000E000BF00BF704710B564
:1008A00000F5D87303EB01131B6803F00403137204
:1008B000137A53B900F5D87303EB01131B6840F2A8
:1008C000FF7404EA5353136009E000F5D87303EB97
:1008D00001131B686FF0604404EAD303536000F512
:1008E000D87303EB01131B6803F00203537200F586
:1008F000D87303EB01135B6803F00F03937200F5E9
:10090000D87303EB01135B681B0AD37400F5D8732B
:1009100003EB01139B68D37200F5D87303EB01134B
:100920009B681C0A147300F5D87303EB01139B68D2
:100930001C0C547300F5D87303EB01139B681B0E5A
:10094000937300F5D87303EB0113DB68D37300F5E1
:10095000D87303EB0113DB681C0A147400F5D87319
:1009600003EB0113DB681C0C547400F5D87303EB24
:100970000113DB681B0E937421B9C36843F0200395
:10098000C36003E0036943F02003036110BD21B994
:10099000C26842F02002C26003E0026942F0200215
:1009A000026170470246002019B9D36803F00300C2
:1009B00006E0012903D1136903F0030000E00020E1
:1009C000704710B502460B4600204FF6FF71BBB9C9
:1009D000146824F0020444F00104146000E0491E8D
:1009E000546804F00304012C01D00029F7D15468A5
:1009F00004F00304012C01D0002032E0012030E09B
:100A0000012B13D1146824F00304146000E0491E84
:100A1000546804F003040CB10029F8D1546804F0C0
:100A200003040CB100201CE001201AE0022B17D1B6
:100A3000146824F0010444F00204146000E0491E2C
:100A4000546804F00304022C01D00029F7D1546843
:100A500004F00304022C01D0002002E0012000E099
:100A6000002010BD014600200A6822F0010242F079
:100A700002020A604A6802F00302022A00D1012041
:100A8000704701464FF6FF7200200B6823F0020307
:100A90000B6000E0521E4B6803F00203022B01D1F1
:100AA000002AF7D14B6803F00203022B00D001208B
:100AB0007047014600208A6902F0700070470146C5
:100AC00000208A69100E7047014600208A69C2F32F
:100AD000074070471AB143690B43436102E0436921
:100AE0008B434361704710B50246002001F4700348
:100AF00043B19369C1F3130423400BB101202DE0EE
:100B000000202BE001F0807343B15368C1F313045C
:100B100023400BB1012021E000201FE001F0006321
:100B200043B19368C1F3130423400BB1012015E0D6
:100B3000002013E001F0007343B1D368C1F3130444
:100B400023400BB1012009E0002007E01369C1F345
:100B5000130423400BB1012000E0002010BD00224F
:100B6000244B994202D10023836111E0C1F31302A7
:100B700001F000730BB1C2600AE001F080630BB1B9
:100B8000026105E001F000630BB1826000E04260A9
:100B900070470246002002EA01030BB1012000E089
:100BA0000020704770B504460D4600266069284055
:100BB000002872D0B5F5807F69D01DDC082D42D0A9
:100BC00006DC012D2DD0022D31D0042D7FD134E053
:100BD000102D3ED0202D42D0402D78D145E0000090
:100BE00003000004000300080000031000010008D7
:100BF0000001FFF77000F030B5F5004F61D009DC5F
:100C0000B5F5007F4AD0B5F5806F4DD0B5F5006FD2
:100C10005DD150E0B5F5803F2DD0B5F5003F56D100
:100C20002FE0A0685549FFF7B4FF064651E0E068A1
:100C30000321FFF7AEFF06464BE0E0680821FFF70F
:100C4000A8FF064645E0E0681021FFF7A2FF064630
:100C50003FE020690321FFF79CFF064639E0206949
:100C60000821FFF796FF064633E020691021FFF7C1
:100C700090FF06462DE060680821FFF78AFF0646D0
:100C800027E060681021FFF784FF064621E0A06995
:100C90000121FFF77EFF06461BE01BE0A069022151
:100CA000FFF777FF064614E0A0690421FFF771FF04
:100CB00006460EE00BE0A0697021FFF76AFF0646CA
:100CC00007E060680421FFF764FF064601E00026A4
:100CD00000BF00E00026304670BDB1F5007F3AD07D
:100CE0000FDC202928D006DC01291CD004291DD0C6
:100CF000082940D11DE0402921D0B1F5807F3AD1AB
:100D000026E0B1F5004F31D006DCB1F5806F25D07B
:100D1000B1F5006F2FD124E0B1F5803F12D0B1F5CD
:100D2000003F28D111E0154A826025E00822C26008
:100D300022E01022C2601FE0082202611CE01022A3
:100D4000026119E00822426016E01022426013E0BE
:100D50000422426010E0042242600DE0042242605E
:100D60000AE0002282610422426005E000228261E2
:100D70000422426000E000BF00BF70470101010093
:100D8000002041490860091D0860091D0860091D0F
:100D900008603E483C4914310860704700213A49D8
:100DA0008279002A3AD00A46126803689A430B46B1
:100DB0001A600A1D126803689A430B1D1A600279B3
:100DC00011440A6803681A430A602F4A08321268FD
:100DD00003689A432C4B08331A601A1D1268036883
:100DE0009A43294B0C331A604279102A0ED11A1FEC
:100DF000126803681A43244B08331A601A1D1268DC
:100E000003681A43204B0C331A600DE01E494279E7
:100E100011440A6803681A430A6005E00279114424
:100E20000A6803689A430A607047002101600171F3
:100E30000C214171002181717047134910310968FB
:100E40000143114A103211607047014600200E4ADA
:100E5000143212680A400AB1012000E000207047F5
:100E6000094914310860704701460020064A1432CF
:100E700012680A400AB1012000E0002070470249D0
:100E80001431086070470000003C0140FFFF7F0004
:100E900010B504469848844208D10121084600F064
:100EA00086FB0021012000F082FB76E0934884421B
:100EB00008D10121022000F07AFB0021022000F07D
:100EC00076FB6AE08E48844208D10121042000F0BC
:100ED0006EFB0021042000F06AFB5EE0894884423A
:100EE00008D10121082000F062FB0021082000F059
:100EF0005EFB52E08448844208D10121102000F0BA
:100F000056FB0021102000F052FB46E07F4884424F
:100F100008D10121202000F04AFB0021202000F010
:100F200046FB3AE07A48844208D10121402000F093
:100F30003EFB0021402000F03AFB2EE07548844241
:100F400008D10121802000F032FB0021802000F038
:100F50002EFB22E07048844208D10121801500F068
:100F600026FB0021A01500F022FB16E06B4884420E
:100F700008D10121401500F01AFB0021601500F096
:100F800016FB0AE06648844207D10121001500F0F3
:100F90000EFB0021201500F00AFB10BDF0B50A463B
:100FA00000210023002400BF3DE0012505FA01F3E4
:100FB000156805EA03049C4234D105684F000326F6
:100FC000BE40B543056015794E00B540066835430F
:100FD00005601579012D02D01579022D16D185688D
:100FE0004F000326BE40B543856055794E00B5409D
:100FF000866835438560456801268E40B543456067
:10100000456896798E40B6B235434560C5684F0055
:101010000326BE40B543C560D5794E00B540C668CD
:101020003543C560491C1029BFD3F0BD4FF6FF7191
:1010300001600021017141718171C171704708B572
:101040004FF480320092009A0A430092009AC261E3
:10105000C161009AC261C2690092C269009208BD72
:101060000246002013690B400BB1012000E0002074
:1010700070470146086980B27047024600205369F4
:101080000B400BB1012000E0002070470146486989
:1010900080B2704701837047418370470AB1018372
:1010A00000E0418370474161704742694A404261B4
:1010B0007047F0B5002300244D07ED0E02FA05F34A
:1010C000CE1000F1200555F826504E07F70E0F26DA
:1010D000BE40B543CF1000F1200646F82750CE1091
:1010E00000F1200555F8265045EA0304CE1000F122
:1010F000200545F82640F0BD0000024000040240F3
:1011000000080240000C024000100240001402409F
:1011100000180240001C024000200240002402404F
:1011200000280240F948006840F00100F7490860D3
:101130000020F64908310860F4480068F449084086
:10114000F2490860F348091D0860F348EF4984310B
:101150000860F0481038091D0860EC48006820F469
:101160008020EA4908600020E8490C310860E7491E
:101170008C31086070470021E44A921C11701146BE
:101180000870704710B501460022002300204A1164
:10119000012A02D1DD4C236808E0022A03D1DB4C8E
:1011A0007034236802E0D94C7434236801F01F02C4
:1011B000012494401C400CB1012000E0002010BD2F
:1011C00038B5002000900024002500BF3120FFF733
:1011D000D9FF05460098401C00900098B0F5A04F3C
:1011E00001D0002DF2D03120FFF7CCFF08B101244F
:1011F00000E00024204638BD01460020C34A1068A4
:1012000020F0F80040EAC10010607047C349086050
:1012100070470021BD4A703211701170012802D050
:1012200004280AD104E00121B84A7032117005E0A7
:101230000521B64A7032117000E000BF00BF704750
:10124000B7490860704770B5049C41EA82150126D1
:10125000C6EB530645EA0645054345EA0465AB4E31
:10126000361D356070BDAD4908667047820142EA9F
:101270000172A64B84331A607047A849886670478C
:1012800010B5830143EA016343EA02739F4C88343B
:10129000236010BDA14908677047A049C864704722
:1012A00002460020994B0833186820F0EC6042EAAF
:1012B00001031843954B083318607047024600201D
:1012C000924B0833186820F0784042EA0103184333
:1012D0008E4B083318607047014600208B4A083255
:1012E000106820F0030008431060704787480830FA
:1012F000006800F00C00704701460020834A083265
:10130000106820F0F000084310607047014600208C
:101310007E4A0832106820F4E0500843106070479D
:1013200001460020794A0832106820F4604040EA03
:10133000C10010607047F0B5002100220024022592
:1013400000260223714F08373F6807F00C0121B1D6
:10135000042905D0082937D105E0724F076036E02F
:10136000714F076033E0694F3F1D3F68C7F38056F8
:10137000664F3F1D3F6807F03F036EB16A4FB7FBF2
:10138000F3F7DFF888C10CF1040CDCF800C0CCF3F3
:10139000881C07FB0CF40CE0624FB7FBF3F7DFF897
:1013A0006CC10CF1040CDCF800C0CCF3881C07FB0A
:1013B0000CF4564F3F1D3F68C7F301477F1C7D006B
:1013C000B4FBF5F7076002E0564F076000BF00BFAF
:1013D0004E4F08373F6807F0F0010909534F7A5C18
:1013E0000768D7404760494F08373F6807F4E05126
:1013F000890A4E4F7A5C4768D7408760434F083769
:101400003F6807F46041490B484F7A5C4768D74012
:10141000C760F0BD002100F44072B2F5407F0AD1F0
:101420003A4A0832116821F4F811414A0240114346
:10143000364A08321160354A70321268C0F30B0325
:101440001A43324B70331A6070473549443908608B
:101450007047334940390860704736490860704723
:1014600001460020294A8C32106820F01F004A1ED5
:101470001043264A8C321060704701460020234AF0
:101480008C32106820F4F8504A1E40EA02201F4AAD
:101490008C3210607047014600201C4A8C32106864
:1014A00020F4401008431060704701460020174A9E
:1014B0008C32106820F440000843106070470146E9
:1014C0000020124A8C32106820F44030084310602B
:1014D000704719490860704739B10C4A30321268B8
:1014E00002430A4B30331A6006E0084A3032126871
:1014F0008243064B30331A607047F9B1034A3432E5
:1015000012680243014B34331A601CE00038024079
:10151000FFFFF6EA103000240030002000004742B0
:10152000800E47420024F40000127A0000000020E0
:10153000FFFCFF0F5C014742E01147428F4A1268EF
:1015400082438E4B1A60704739B18C4A121D126863
:1015500002438A4B1B1D1A6006E0884A121D12685E
:101560008243864B1B1D1A60704739B1834A0C3287
:1015700012680243814B0C331A6006E07F4A0C323A
:10158000126882437D4B0C331A60704739B17B4A35
:10159000103212680243794B10331A6006E0774A22
:1015A000103212688243754B10331A60704739B19C
:1015B000724A243A12680243704B243B1A6006E0D8
:1015C0006E4A243A126882436C4B243B1A6070477F
:1015D00039B16A4A203A12680243684B203B1A60CC
:1015E00006E0664A203A12688243644B203B1A6048
:1015F000704739B1614A1C3A126802435F4B1C3B89
:101600001A6006E05D4A1C3A126882435B4B1C3B41
:101610001A60704739B1594A143A12680243574B5D
:10162000143B1A6006E0554A143A12688243534B41
:10163000143B1A60704739B1504A103A126802439D
:101640004E4B103B1A6006E04C4A103A1268824337
:101650004A4B103B1A60704739B1484A1C32126835
:101660000243464B1C331A6006E0444A1C3212689F
:101670008243424B1C331A60704739B13F4A2032D3
:10168000126802433D4B20331A6006E03B4A203289
:1016900012688243394B20331A60704739B1374A98
:1016A000243212680243354B24331A6006E0334A71
:1016B000243212688243314B24331A60704739B1A7
:1016C0002E4A2C32126802432C4B2C331A6006E04F
:1016D0002A4A2C3212688243284B2C331A607047F6
:1016E00039B1264A303212680243244B30331A6033
:1016F00006E0224A303212688243204B30331A60AF
:101700007047012808D11D493C31096841F00801A2
:101710001A4A3C32116007E018493C31096821F04F
:101720000801164A3C321160704739B1134A273A12
:1017300012780243114B273B1A7006E00F4A273AF2
:10174000127882430D4B273B1A7070470B4840308C
:10175000006840F0807009494031086070470146D8
:101760000020064A283A12680A400AB1012000E027
:10177000002070470149263908707047343802400C
:1017800010B501218803FFF756FF00214FF4804078
:10179000FFF751FF10BD1C49086070471B490862E4
:1017A000704730B500228B071C0F0F2303FA04F299
:1017B000154B08338C1053F824309343124C0834E3
:1017C0008D1044F8253023468C1053F824308C07B4
:1017D000240F00FA04F423430B4C08348D1044F812
:1017E000253030BD0949DC31086070470849086080
:1017F0007047002004492031096801F4807109B163
:10180000012000E00020704700380140000027421E
:101810000004274210B50446FE48844208D1012145
:101820000846FFF708FF00210120FFF704FF9DE0B5
:10183000B4F1804F08D101210846FFF7EBFE0021EB
:101840000120FFF7E7FE91E0F348844208D101212F
:101850000220FFF7DFFE00210220FFF7DBFE85E01C
:10186000EE48844208D101210420FFF7D3FE002175
:101870000420FFF7CFFE79E0E948844208D1012136
:101880000820FFF7C7FE00210820FFF7C3FE6DE028
:10189000E448844208D101211020FFF7BBFE00215B
:1018A0001020FFF7B7FE61E0DF48844208D1012134
:1018B0002020FFF7AFFE00212020FFF7ABFE55E010
:1018C000DA48844208D101210220FFF7B4FE00214A
:1018D0000220FFF7B0FE49E0D548844209D101213A
:1018E0000804FFF7A8FE00214FF48030FFF7A3FEA5
:1018F0003CE0D048844209D101214804FFF79BFE17
:1019000000214FF40030FFF796FE2FE0CA488442D2
:1019100009D101218804FFF78EFE00214FF48020B9
:10192000FFF789FE22E0C548844208D1012140200A
:10193000FFF770FE00214020FFF76CFE16E0C04864
:10194000844208D101218020FFF764FE002180201D
:10195000FFF760FE0AE0BB48844207D101218015F1
:10196000FFF758FE0021A015FFF754FE10BD00221E
:101970000288A84B98420ED0AC4B98420BD0B0F1E5
:10198000804F08D0A44B984205D0A44B984202D077
:10199000A34B984204D14FF68F731A404B881A43D9
:1019A000A04B984207D0A04B984204D04FF6FF437B
:1019B0001A400B891A4302804B68C3620B88038567
:1019C000944B984202D0994B984201D18B7A03866E
:1019D0000123838270474FF0FF3141600021018075
:1019E00001814180817270470185828270470A4679
:1019F000002101884FF68F73194011430180704711
:101A000041627047C16270470146486A70470146AB
:101A1000088D704721B1028842F00202028004E082
:101A200002884FF6FD731A400280704721B1028888
:101A300042F00402028004E002884FF6FB731A4071
:101A40000280704721B1028842F08002028004E0E7
:101A500002884FF67F731A400280704702884FF663
:101A6000F7731A40028002880A4302807047028896
:101A70004FF6FF431A40028002880A4302807047F3
:101A800021B1028842F00102028004E002884FF690
:101A9000FE731A400280704770B5002400220023B4
:101AA000058C4FF6FE7635400584028C8388048BC6
:101AB0004FF68F752C40B51E2C400D882C43751E9B
:101AC0002A408D892A434D882A43524DA84202D08C
:101AD000564DA84213D14FF6F7752A40CD892A43B7
:101AE0004FF6FB752A408D882A434FF6FF652B4041
:101AF0004FF6FF552B400D8A2B434D8A2B43838095
:101B000004838D684563028470BD70B50024002293
:101B10000023058C4FF6EF7635400584028C8388D0
:101B2000048B48F6FF752C404FF6FF452C400D887E
:101B30004FF6FF7606EA05252C434FF6DF752A405F
:101B40008D8906EA05152A434D8806EA05152A43BC
:101B5000304DA84202D0354DA8421DD14FF67F75B9
:101B60002A40CD894FF6FF7606EA05152A434FF63F
:101B7000BF752A408D8806EA05152A434FF6FF35C2
:101B80002B404FF2FF752B400D8A06EA85052B434B
:101B90004D8A06EA85052B43838004838D6885631F
:101BA000028470BD70B5002400220023058C4FF61E
:101BB000FF6635400584028C8388848B4FF68F75D1
:101BC0002C404FF6FC752C400D882C434FF6FF55EA
:101BD0002A408D894FF6FF7606EA05252A434D886F
:101BE00006EA05252A430B4DA84202D00F4DA84214
:101BF00038D14FF2FF752A40CD894FF6FF7606EABD
:101C000005252A434FF6FF352A408D8806EA05252B
:101C10002A4319E000000140000400400008004091
:101C2000000C00400010004000140040000401407F
:101C300000400140004401400048014000180040BD
:101C4000001C0040002000404EF6FF752B404DF672
:101C5000FF752B400D8A06EA05152B434D8A06EACF
:101C600005152B43838084838D68C563028470BD12
:101C700070B5002200230024058C4EF6FF76354017
:101C80000584038C8488828B48F6FF752A404FF6C2
:101C9000FF452A400D884FF6FF7606EA05252A43C0
:101CA0004DF6FF752B408D8906EA05352B434D888F
:101CB00006EA05352B43FE4DA84202D0FD4DA84251
:101CC00008D14BF6FF752C400D8A4FF6FF7606EAD9
:101CD00085152C43848082838D680564038470BDE0
:101CE000002101804180818081608181C1810182E8
:101CF0004182704770B50346002000241846183012
:101D000001258D40ACB21D8CA5431D8409B1082965
:101D10000AD100EB610005684FF68F76354005600B
:101D20000568154305600FE00D1FC5F34E052844F7
:101D3000056848F6FF763540056005684FF6FF7682
:101D400006EA02263543056070BD41637047816332
:101D50007047C1637047016470470A460021018BD8
:101D60004FF68F7319401143018370470A460021D3
:101D7000018B48F6FF7319404FF6FF7303EA022305
:101D80001943018370470A460021818B4FF68F73F8
:101D900019401143818370470A460021818B48F620
:101DA000FF7319404FF6FF7303EA0223194381833F
:101DB00070470A460021018B4FF6F7731940114313
:101DC000018370470A460021018B4FF2FF731940CF
:101DD0004FF6FF7303EA02231943018370470A4653
:101DE0000021818B4FF6F7731940114381837047AF
:101DF0000A460021818B4FF2FF7319404FF6FF73A3
:101E000003EA02231943818370470A460021018BAC
:101E10004FF6FB7319401143018370470A460021B6
:101E2000018B4FF6FF3319404FF6FF7303EA02238D
:101E30001943018370470A460021818B4FF6FB73DB
:101E400019401143818370470A460021818B4FF668
:101E5000FF3319404FF6FF7303EA022319438183CE
:101E600070470A460021018B4FF67F7319401143DA
:101E7000018370470A460021018BC1F30E014FF622
:101E8000FF7303EA02231943018370470A460021C6
:101E9000818B4FF67F7319401143818370470A4647
:101EA0000021818BC1F30E014FF6FF7303EA022379
:101EB0001943818370470A460021018C4FF6FD7358
:101EC00019401143018470470A460021018C4FF6E6
:101ED000F77319401143018470470A460021018CB1
:101EE0004FF6DF7319404FF6FF7303EA02131943ED
:101EF000018470470A460021018C4FF67F73194018
:101F00004FF6FF7303EA02131943018470470A4630
:101F10000021018C4FF6FF5319404FF6FF7303EA7F
:101F200002231943018470470A460021018C4FF2B5
:101F3000FF7319404FF6FF7303EA0223194301842C
:101F400070470A460021018C4DF6FF7319404FF689
:101F5000FF7303EA023319430184704730B500234D
:101F600001248C40A3B2048C9C430484048C02FAA8
:101F700001F5ADB22C43048430BD30B500230424F8
:101F80008C40A3B2048C9C430484048C02FA01F5B7
:101F9000ADB22C43048430BD828B4FF2FF331A4024
:101FA0008283828B4FF6FF7303EA01231A438283F5
:101FB0007047F0B50C461546002100220026078C1C
:101FC0004EF6FF7C07EA0C070784818B028C4FF6E4
:101FD000FF7707EA043640F6FF4739404FF6FF77B0
:101FE00007EA052739434FF6FF7707EA03373943F6
:101FF00045F6FF773A4046F480573A43818302849E
:10200000F0BD828B4FF6F3731A408283828B0A43B2
:1020100082837047F0B50C46154600210022002649
:10202000078C4FF6FF6C07EA0C070784818B028C44
:102030004FF6FF7707EA04264FF60C7739404FF644
:10204000FF7707EA03172F4339434FF2FF573A4010
:1020500046F480773A4381830284F0BD028B4FF2CD
:10206000FF331A400283028B4FF6FF7303EA01230A
:102070001A4302837047F0B50C4615460021002232
:102080000026078C4FF6EF7C07EA0C070784018BCC
:10209000028C4FF6FF7707EA041640F6FF473940F7
:1020A0004FF6FF7707EA033739434FF6FF7703E030
:1020B000000001400004014007EA052739434FF6BC
:1020C0005F773A4046F010073A4301830284F0BD3F
:1020D000028B4FF6F3731A400283028B0A4302838A
:1020E0007047F0B50C46154600210022068C4FF6CD
:1020F000FE773E400684018B028C4FF60C76314011
:102100007E1C06EA03162E4331434FF6F576324025
:1021100044F00106324301830284F0BD70B50546E8
:102120000C46208850B92389A28861882846FFF789
:10213000D8FFE1882846FFF7CBFF25E02088042858
:102140000AD12389A28861882846FFF794FFE18895
:102150002846FFF783FF17E0208808280AD1238943
:10216000A28861882846FFF755FFE1882846FFF7D7
:1021700048FF09E02389A28861882846FFF719FFF4
:10218000E1882846FFF708FF70BD002101804180EB
:10219000012181800021C180018170472DE9F0413A
:1021A00005460C4600260127608808B9022600E093
:1021B0000026A088012801D1022700E001272088FD
:1021C000A0B92389A28861882846FFF78AFFE188A1
:1021D0002846FFF77DFF23893A4631462846FFF718
:1021E0004AFFE1882846FFF739FF13E02389A288D8
:1021F00061882846FFF73FFFE1882846FFF72EFF5A
:1022000023893A4631462846FFF76BFFE188284686
:10221000FFF75EFFBDE8F0810146486B704701465D
:10222000886B70470146C86B70470146086C704761
:102230000A884B881A438B881A43CB881A430B8928
:102240001A434B891A438B891A43A0F844207047DC
:102250000021018041808180C18001814181818193
:10226000704731B1B0F8442042F40042A0F8442055
:1022700005E0B0F84420C2F30E02A0F844207047F5
:1022800021B1828842F00402828004E082884FF605
:10229000FB731A408280704721B1828842F00102AC
:1022A000828004E082884FF6FE731A408280704775
:1022B0001AB183890B43838102E083898B43838135
:1022C00070478182704702460020138A0B400BB191
:1022D000012000E000207047CA430282704730B5F9
:1022E0000246002000230024158A05EA010395898F
:1022F00005EA010413B10CB1012000E0002030BD5B
:10230000CA430282704741EA0203A0F8483070478E
:102310001AB183890B43838102E083898B438381D4
:10232000704721B1828842F00802828004E08288EE
:102330004FF6F7731A408280704701894FF6F872A2
:102340001140018170470A46002101894FF68F73C1
:10235000194011430181704730B504460D462946A6
:102360002046FFF7F0FF208940F00700208130BDB4
:102370002DE9F04104460D4616461F46602D06D154
:102380003B46012231462046FFF775FE05E03B46FD
:10239000012231462046FFF7A4FE29462046FFF7DA
:1023A000D2FF208940F007002081BDE8F08130B5E0
:1023B0000C4600210189C9B24FF6FF7505EA0325D5
:1023C000154325432943018130BD2DE9F0410546E0
:1023D0000E4617469846002443463A46314628465C
:1023E000FFF7E5FF2C894FF6F870044044F007042E
:1023F0004FF68F70044044F070042C81BDE8F081EA
:10240000F0B504460D4616461F463B463246294661
:102410002046FFF7CCFF208940F480402081F0BDAA
:1024200082884FF68F731A40828082880A438280A6
:10243000704702894FF6F8731A40028102890A43F5
:102440000281704702894FF67F731A400281028928
:102450000A4302817047F0B50C4615461E4600211E
:10246000002200230189028B038C4FF6F877394054
:1024700021434FF6FC473A4040F201173A434FF6EA
:10248000DD773B404FF6FF7707EA06172F433B43C4
:10249000018102830384F0BD21B1828842F0800271
:1024A000828004E082884FF67F731A4082807047F2
:1024B000A0F850107047000010B50446FA48844256
:1024C00008D101211020FFF7B6F800211020FFF7F6
:1024D000B2F857E0F548844209D101214804FFF7DA
:1024E00099F800214FF40030FFF794F84AE0F048E3
:1024F000844209D101218804FFF78CF800214FF4B0
:102500008020FFF787F83DE0EA48844209D10121A5
:10251000C804FFF77FF800214FF40020FFF77AF896
:1025200030E0E548844209D101210805FFF772F83F
:1025300000214FF48010FFF76DF823E0DF4884425C
:1025400008D101212020FFF776F800212020FFF795
:1025500072F817E0DA48844209D101218807FFF7B1
:1025600059F800214FF08040FFF754F80AE0D548B1
:10257000844207D101214005FFF74CF80021600596
:10258000FFF748F810BD2DE9FF4705460E46002429
:10259000A14600BFA046B08900B100BF2C8A24F438
:1025A0004054F08804432C82AC8941F20C6084438F
:1025B000B08831890843718908430443AC81AC8AEF
:1025C00024F44074B0890443AC826846FEF7B3FE3D
:1025D000B548854202D0B948854202D1DDF80C9059
:1025E00001E0DDF80890A88900F4004040B109EB53
:1025F000C90000EB091031684900B0FBF1F707E0B2
:1026000009EBC90000EB091031688900B0FBF1F754
:102610006420B7FBF0F004012009642101FB10786D
:10262000A88900F4004040B1322000EBC800B0FBA4
:10263000F1F000F00700044308E0322000EB08103E
:102640006421B0FBF1F000F00F0004432C81BDE8E1
:10265000FF874FF41651016000218180C180018104
:102660000C21418100218181704710B50246002074
:10267000108A20F470600B884C8823438C88234395
:10268000CC8823431843108210BD00210180418073
:102690008180C180704721B1828942F400528281D9
:1026A00004E082894DF6FF731A4082817047028BE5
:1026B00002F47F420283028B0A430283704721B1F6
:1026C000828942F40042828103E08289C2F30E02D1
:1026D0008281704721B1828A42F40062828204E0E2
:1026E000828A4FF2FF731A4082827047C1F3080258
:1026F0008280704701468888C0F308007047028ACC
:102700004FF6F0731A400282028A0A43028270472F
:1027100021B1828942F00202828104E082894FF66F
:10272000FD731A408281704782894FF2FF731A400D
:10273000828182890A4382817047028A4FF6DF7361
:102740001A400282028A0A430282704721B1028A39
:1027500042F48042028204E0028A4BF6FF731A4080
:1027600002827047818941F001018181704721B166
:10277000828A42F00802828204E0828A4FF6F7736E
:102780001A4082827047028BD2B20283028B42EAE5
:1027900001220283704721B1828A42F020028282A4
:1027A00004E0828A4FF6DF731A408282704721B1BB
:1027B000828A42F01002828204E0828A4FF6EF732E
:1027C0001A4082827047828A4FF6FB731A408282D7
:1027D000828A0A438282704721B1828A42F00202D1
:1027E000828204E0828A4FF6FD731A40828270472B
:1027F0001AB1838A0B43838202E0838A8B438382EC
:102800007047F0B50346002400260025002040F65E
:102810006A17B94200D100BF1846C1F3421401F053
:102820001F06012707FA06F5012C01D10C3004E040
:10283000022C01D1103000E014301AB107682F4388
:10284000076002E00768AF430760F0BD0246002062
:10285000B1F5007F00D100BF13880B400BB1012000
:1028600000E00020704701F40072B2F5007F00D153
:1028700000BFCA430280704770B50246002400239F
:102880000025002040F66A16B14200D100BFC1F316
:10289000421501F01F03012606FA03F3012D13D19F
:1028A0009689334017E000000010014000440040CA
:1028B00000480040004C004000500040001401401F
:1028C00000780040007C0040022D02D1168A33407F
:1028D00001E0968A33400C12012606FA04F41688A9
:1028E000344013B10CB1012000E0002070BD10B5E0
:1028F0000022002340F66A14A14200D100BF0A1250
:1029000001249440A3B2DC43048010BD10B50446FA
:102910006FF00400FDF71EFDE11704EB5171C1F3E8
:10292000C7016C4A11701046007800EB4001C1EB02
:10293000C0104FF6FF7101EAC0006749088010BD62
:102940000146644A12784A434FF0E0235A6100225C
:102950009A611A46126942F001021A6100BF4FF0F3
:10296000E022106900F001021AB100F48032002A5E
:10297000F5D04FF0E022126922F001024FF0E0237F
:102980001A6100229A6170470146534A12884A43ED
:102990004FF0E0235A6100229A611A46126942F010
:1029A00001021A6100BF4FF0E022106900F001023D
:1029B0001AB100F48032002AF5D04FF0E0221269FB
:1029C00022F001024FF0E0231A6100229A61704761
:1029D00070B50446C82094FBF0F0C6B2C82094FB42
:1029E000F0F100FB114085B204E0C820FFF7CCFFF6
:1029F000701EC6B2002EF8D115B12846FFF7C4FFED
:102A000070BD3648006840F01000344908607047D7
:102A10005321334A11851146C862898A41F0010168
:102A20009182002111821146098841F0080111802C
:102A30001146098841F00101118000BF2849098A27
:102A400001F001010029F9D02549098A21F001018D
:102A5000234A118270474AF20F41214A11854100F1
:102A6000D1621146898A41F00101918200211182CF
:102A70001146098841F0080111801146098841F08A
:102A80000101118000BF1649098A01F001010029E6
:102A9000F9D01349098A21F00101114A11827047C6
:102AA00001464AF20F400E4A10854800D062104697
:102AB000808A40F001009082002010821046008839
:102AC00040F0080010801046008840F0010010809F
:102AD0007047000010000020120000204038024023
:102AE0000010004000BF704700BF2E4A128802F05D
:102AF0004002002AF9D0C2B22A4B1B1D1A8070472F
:102B000010B588B0044601210846FEF7E5FC012116
:102B10001020FEF73BFD072209212348FEF7C9FAE2
:102B200007220A212048FEF7C4FA4FF4C06006903D
:102B300002208DF81C008DF81D0000208DF81E006D
:102B400001208DF81F0006A91748FEF727FA029406
:102B50000020ADF80C00ADF80E00ADF81000ADF897
:102B600014000C20ADF8120002A91048FFF70BFD6D
:102B700001210E48FFF78FFD012240F225510B483D
:102B8000FFF73FFE25208DF8040003208DF8050097
:102B90008DF8060001208DF8070001A8FDF78DFBD8
:102BA00008B010BD001401400000024000100140B8
:102BB00000B587B001211020FEF7E8FC012108468E
:102BC000FEF78AFC072209216E48FEF772FA4FF4DD
:102BD0000070059002208DF818008DF81900002073
:102BE0008DF81A0005A96748FEF7D8F907220A21CF
:102BF0006448FEF75EFA4FF48060059002208DF87D
:102C000018008DF8190000208DF81A0001208DF8A9
:102C10001B0005A95B48FEF7C1F94FF4165001905F
:102C20000020ADF810000C20ADF80E000020ADF82B
:102C30000C00ADF80A00ADF8080001A95248FFF7F2
:102C4000A2FC012240F225514F48FFF7DAFD4FF474
:102C5000A060FDF72DFB25208DF8000001208DF8E8
:102C6000030000208DF801008DF802006846FDF792
:102C700024FB01214448FFF70EFD07B000BD10B54D
:102C8000044621464048FFF731FD00BF80213E4801
:102C9000FFF7DCFD0028F9D010BD70B505460E46E3
:102CA000002404E0285DFFF7EAFF601C84B2B44210
:102CB000F8DB70BD70B50446002504E0605DFFF7E9
:102CC000DEFF681CC5B2605D0028F7D170BD10B58D
:102CD000FF20FFF7D4FF07212C48FFF7DEFFFE207F
:102CE000FFF7CDFF10BD2A480078012804D100204D
:102CF00027490870012070470020FCE7254908702B
:102D0000704710B540F225511F48FFF7B5FD012867
:102D100036D11D48FFF7EEFCC4B21E48007840B91A
:102D2000FF2C27D101201B49087000201A49087088
:102D300020E018480078012810D118481649097871
:102D4000445415480078401C134908700846007820
:102D500009280FDB02200F4908700BE00D480078AE
:102D6000022807D1FE2C05D100200A490870012055
:102D70000749087040F225510348FFF7B8FD00BF2E
:102D800010BD000000000240001001409001002032
:102D900014000020150000201600002099010020DA
:102DA00008B54FF4A060FDF783FA01208DF8030009
:102DB00003208DF802008DF8010014208DF800002A
:102DC0006846FDF77AFA08BD10B501210846FEF7FE
:102DD00083FB01214806FEF7C8FB10BD00B58FB08C
:102DE0004FF480500D9002208DF839008DF8380096
:102DF00000208DF83A000DA94448FEF7CFF84FF4B3
:102E000000600D9002208DF8380001208DF83B0005
:102E100002208DF839000DA93C48FEF7BFF80922C1
:102E20000B213A48FEF745F909220C213748FEF7F5
:102E300040F90AA8FDF7D0FB00208DF82E008DF890
:102E40002F008DF830008DF831008DF832008DF8AC
:102E500033008DF82A008DF82B0008208DF82C0007
:102E600001208DF82D000720ADF828000AA9284878
:102E7000FDF7A7FA002009909DF824004011069064
:102E80009DF824004FF6FF7101EAC020001D079055
:102E9000002008909DF82000401104909DF820002B
:102EA00001EAC020001D059001208DF80A000020D5
:102EB0008DF80B0001208DF80C00BDF81800ADF85E
:102EC0000000BDF81C00ADF80200BDF81000ADF820
:102ED0000400BDF81400ADF806000020ADF80800AD
:102EE00001208DF80D006846FDF7F5FA0122022158
:102EF0000748FDF7EFFD0FB000BD10B5FFF750FF1D
:102F0000FFF762FFFFF76AFF10BD000000000240FC
:102F10000064004010B54B4A00214B48FDF7BFFC50
:102F20000120484981F8280002214748FDF7D5FED5
:102F300010BD30B585B004460D46002004900390C6
:102F4000029001900090A81EC0B2039066E09DF828
:102F50000C009DF81010401AC0B2029000203949B0
:102F6000486120789DF8001041EA002135488161D0
:102F70006178C17704210177002141779DF808002D
:102F8000082823DA0020019013E09DF81000801C2F
:102F9000225C2C481F309DF80410491C42549DF8B7
:102FA0000400401CC0B201909DF81000401CC0B24B
:102FB00004909DF804009DF808108842E5DB9DF818
:102FC0000800401CC1B21F4881771DE0002001901D
:102FD00013E09DF81000801C225C1A481F309DF8F9
:102FE0000410491C42549DF80400401CC0B20190DA
:102FF0009DF81000401CC0B204909DF80400072802
:10300000E7DB08210F4881770E4914310E48FDF7A0
:1030100051FB9DF80000401CC0B200909DF81000CC
:103020009DF80C10884292DB05B030BD074800784F
:10303000012804D1002005490870012070470020B4
:10304000FCE70000BC0100200064004017000020E5
:103050001FB50446002000900190029003908DF867
:1030600000400A208DF801006D208DF802006B20D1
:103070008DF8030004216846FFF75BFF1FBD1FB5F5
:103080000446002000900190029003908DF80040CB
:103090000E208DF8010052208DF802006B208DF873
:1030A000030004216846FFF744FF1FBD7FB50646B5
:1030B0000D460024002000900190029003900DF82E
:1030C0000460641C112D68D2DFE805F0090F151BA0
:1030D000672167272D33393F6745515C4B001F201F
:1030E0000DF80400601CC4B258E020200DF8040064
:1030F000601CC4B252E021200DF80400601CC4B270
:103100004CE024200DF80400601CC4B246E02720E7
:103110000DF80400601CC4B240E031200DF804003A
:10312000601CC4B23AE033200DF80400601CC4B245
:1031300034E035200DF80400601CC4B22EE03620C7
:103140000DF80400601CC4B228E037200DF804001C
:10315000601CC4B222E03A200DF80400601CC4B226
:103160001CE03B200DF80400601CC4B216E04220B5
:103170000DF80400601CC4B26C200DF80400601C43
:10318000C4B20BE043200DF80400601CC4B27A20E6
:103190000DF80400601CC4B200E000BF00BF6B204B
:1031A0000DF80400601CC4B221466846FFF7C1FE5A
:1031B0007FBD7FB506460C46154600200090019065
:1031C000029003908DF8006046208DF80100692080
:1031D0008DF802008DF803408DF804506B208DF8B7
:1031E000050006216846FFF7A4FE7FBD7FB50646B1
:1031F0000C461546002000900190029003908DF837
:103200000060F3208DF80100AB208DF802008DF8EE
:1032100003408DF804506B208DF8050006216846A8
:10322000FFF787FE7FBD2DE9FF4105460F46144697
:103230001E46DDF828800020009001900290039047
:103240008DF80050F6208DF801008DF802702012E4
:103250008DF80300E0B28DF804008DF805608DF85C
:1032600006806B208DF8070008216846FFF761FE95
:10327000BDE8FF812DE9FF4706460F4615469846F3
:10328000DDE90D9A0C9C00200090019002900390C3
:103290008DF80060FD208DF801008DF80270281275
:1032A0008DF80300E8B28DF804008DF80580200E3B
:1032B0008DF80600200C8DF80700200A8DF8080014
:1032C000E0B28DF809008DF80A908DF80BA06B2004
:1032D0008DF80C000D216846FFF72BFEBDE8FF8737
:1032E0007FB505460C4600200090019002900390A7
:1032F0008DF80050FE208DF8010098208DF8020016
:103300008DF803406B208DF8040005216846FFF717
:1033100010FE7FBD1FB50446002000900190029072
:1033200003908DF80040FF208DF8010066208DF895
:1033300002006B208DF8030004216846FFF7F9FDB9
:103340001FBD7FB505460C460020009001900290FD
:1033500003908DF8005093208DF8010088208DF89F
:1033600002008DF803406B208DF8040005216846AB
:10337000FFF7DFFD7FBD2DE9F04F89B005460E4612
:103380001746984613AC94E8100E202101A807F0C8
:103390000AFD8DF804504C208DF80500AE208DF804
:1033A00006008DF807608DF808708DF80980129876
:1033B00000128DF80A001298C0B28DF80B00200E92
:1033C0008DF80C00200C8DF80D00200A8DF80E00F1
:1033D000E0B28DF80F004FEA29208DF8100009F0B7
:1033E000FF008DF811004FEA2A208DF812000AF034
:1033F000FF008DF813004FEA2B208DF814000BF01E
:10340000FF008DF8150017988DF816006B208DF8C9
:103410001700142101A8FFF78CFD09B0BDE8F08F5B
:103420007FB506460C46154600200090019002909C
:1034300003908DF800609A208DF801008DF802400D
:103440008DF803506B208DF8040005216846FFF7C6
:1034500070FD7FBD1FB504460020009001900290D2
:1034600003908DF800409C208DF8010048208DF8D5
:1034700002006B208DF8030004216846FFF759FD18
:103480001FBD0000F0B587B004460D461646012763
:103490006019801B039060422844304404906042CD
:1034A0002844801B0590601930440690039800283A
:1034B0000ADB00200090F9480378039882B20021CB
:1034C0000220FFF7B0FE0AE000200090F3480378E6
:1034D0000398404282B201210220FFF7A4FE384641
:1034E000FFF776FA049800280ADB00200090EB48EA
:1034F0000378049882B201210846FFF794FE0AE09F
:1035000000200090E54803780498404282B20021F0
:103510000120FFF788FE3846FFF75AFA0598002881
:103520000ADB00200090DD480378059882B2002174
:103530000320FFF778FE0AE000200090D7480378C8
:103540000598404282B201210320FFF76CFE384605
:10355000FFF73EFA069800280ADB00200090CF48CB
:103560000378069882B201210420FFF75CFE0AE08E
:1035700000200090C94803780698404282B200219A
:103580000420FFF750FE3846FFF722FA07B0F0BDDF
:1035900070B52DED068B88B0B0EE408A0526B5EEED
:1035A000C08AF1EE10FA02DDB0EE480A01E0B1EE99
:1035B000480A10EE101A084609F04AFB41EC1A0BB3
:1035C0009FEDB70B53EC102B09F04CF841EC190BA5
:1035D00008F084FF0446B44890ED000AB8EEC00A33
:1035E00060EE080AB5EEC08AF1EE10FA02DDB0EE28
:1035F000480A01E0B1EE480A80EE801ABDEEC10A29
:1036000010EE105A00EE105A8DED040A6842059033
:103610006842069000EE105A8DED070A04980028C3
:103620000CDB01200021CDE9004102909F48037886
:10363000049882B20220FFF71DFE0DE00120002158
:10364000CDE900410290994803780498404282B243
:1036500001210220FFF70EFE3046FFF7B9F9059869
:1036600000280DDB01200021CDE9004102908F48A8
:103670000378059882B201210846FFF7FBFD0CE0B4
:1036800001200021CDE90041029088480378059887
:10369000404282B20120FFF7EDFD3046FFF798F976
:1036A000069800280CDB01200021CDE900410290A2
:1036B0007E480378069882B20320FFF7DBFD0DE019
:1036C00001200021CDE90041029078480378069856
:1036D000404282B201210320FFF7CCFD3046FFF7C4
:1036E00077F9079800280DDB01200021CDE9004182
:1036F00002906E480378079882B201210420FFF7F8
:10370000B9FD0CE001200021CDE90041029067489D
:1037100003780798404282B20420FFF7ABFD3046A1
:10372000FFF756F90020FFF7F5FD08B0BDEC068B5A
:1037300070BD30B52DED068B89B0B0EE408A052501
:10374000B5EEC08AF1EE10FA02DDB0EE480A01E0F3
:10375000B1EE480A10EE101A084609F079FA41EC69
:103760001A0B9FED530B53EC102B08F07BFF41EC31
:10377000190B08F0B3FE04464B4890ED000AB8EE72
:10378000C00A60EE080AB5EEC08AF1EE10FA02DD5A
:10379000B0EE480A01E0B1EE480A80EE801AFDEE74
:1037A000C18ACDED058ACDED068ACDED078ACDED36
:1037B000088A059800280CDB01200021CDE9004192
:1037C00002903A480378059882B20220FFF752FD32
:1037D0000DE001200021CDE900410290334803783B
:1037E0000598404282B201210220FFF743FD28469E
:1037F000FFF7EEF8069800280DDB01200021CDE947
:103800000041029029480378069882B201210846B7
:10381000FFF730FD0CE001200021CDE900410290CE
:10382000224803780698404282B20120FFF722FD29
:103830002846FFF7CDF8079800280CDB012000216F
:10384000CDE90041029019480378079882B203201D
:10385000FFF710FD0DE001200021CDE900410290AD
:10386000124803780798404282B201210320FFF7F3
:1038700001FD2846FFF7ACF8089800281CDB012062
:103880000021CDE90041029008480378089882B2EF
:1038900001210420FFF7EEFC1BE0000024000020C3
:1038A00000000000000025401C0000202000002037
:1038B0009A9999999999244001200021CDE90041D4
:1038C0000290F84803780898404282B20420FFF73B
:1038D000D1FC2846FFF77CF80020FFF71BFD09B05C
:1038E000BDEC068B30BDF0B52DED108B83B0B0EE86
:1038F000408A04460D4616460CB94FF480749FED7D
:10390000EAABCEB9B5EEC08AF1EE10FA02DDB0EE48
:10391000480A01E0B1EE480A10EE101A084609F014
:1039200097F941EC1D0B1FED220B53EC102B08F007
:1039300099FE41EC1A0B18E0B5EEC08AF1EE10FAD0
:1039400002DDB0EE480A01E0B1EE480A10EE101AAE
:10395000084609F07DF941EC1D0B1FED2B0B53ECD4
:10396000102B08F07FFE41EC1A0B04EB44014800D9
:1039700008F011FECDE90001284608F023FE41ECD5
:103980001F0B9FEDCB1BB0EE4F0AF0EE6F0A07F056
:103990007BFBB0EE40EAF0EE60EA9FEDC70B53EC24
:1039A000102B51EC1E0B08F05DFE9DED000B53EC4F
:1039B000102B08F03BFC41EC1B0B4FF4FA60684302
:1039C00090FBF4F7384608F0E6FD41EC1C0B9FED48
:1039D000B69B53EC1A2B51EC1B0B08F041FF1CD883
:1039E00053EC1B2B51EC1A0B08F020FC41EC1E0B86
:1039F0009FEDB31BB0EE4E0AF0EE6E0A07F044FBEB
:103A0000B0EE40DAF0EE60DA53EC1C2B51EC1D0BFB
:103A100008F028FE41EC190B26E005EB850080013B
:103A2000062190FBF1F7384608F0B5FD41EC1D0B7F
:103A300053EC1B2B51EC1A0B09F020F89FEDA20B55
:103A400053EC102B08F00EFE53EC1D2B08F0EEFB90
:103A500053EC1C2BCDE900019DED000B51EC100B3C
:103A600008F08CFA41EC190BB5EEC08AF1EE10FAB1
:103A700002DDB0EE480A01E0B1EE480AF0EE000ABD
:103A8000B4EEE00AF1EE10FA05D89FED910BB0EE1E
:103A9000409AF0EE609A53EC192B9FED8F0B51EC8E
:103AA000100B08F0DFFD41EC190B51EC190B08F07D
:103AB00015FD0746FEF7CFFFB0EE490AF0EE690AA2
:103AC00003B0BDEC108BF0BD764A1060844A1160E3
:103AD000704770B52DED028BF0EE408AB0EE608A33
:103AE00004460D460A20FEF7B6FF29462046FFF79A
:103AF000EBFFB1EE480AFFF71CFEA9B2A0B201220B
:103B0000B0EE480AFFF7EFFEBDEC028B70BD70B55A
:103B10002DED028BB0EE408AF0EE608A04460D4631
:103B20000A20FEF798FF29462046FFF7CDFFB1EEA9
:103B3000480AFFF72DFDA9B2A0B20022B0EE480A54
:103B4000FFF7D1FEBDEC028B70BD70B52DED028B81
:103B5000F0EE408AB0EE608A04460D460A20FEF779
:103B60007AFF29462046FFF7AFFFB1EE480AFFF77C
:103B7000E0FDBDEC028B70BD70B52DED028BB0EE9B
:103B8000408AF0EE608A04460D460A20FEF763FF85
:103B900029462046FFF798FFB1EE480AFFF7F8FCE8
:103BA000BDEC028B70BD70B52DED108B82B0B0EE08
:103BB000409A04460D460CB94FF4807400EE104A4A
:103BC000B8EE400AF1EE080A20EE200A10EE101AB4
:103BD000084609F03DF841EC1C0B284608F0F2FCC1
:103BE00041EC1F0B9FED321BB0EE4F0AF0EE6F0A57
:103BF00007F04AFAB0EE40EAF0EE60EA9FED2E0BD5
:103C000053EC102B51EC1E0B08F02CFD41EC1D0B5E
:103C100053EC1C2B08F00AFB41EC1A0B00EE105A77
:103C2000B8EE400ADFED2F0A60EE200A00EE104ADF
:103C3000B8EE400A80EE801A11EE106A304609F0A4
:103C400007F841EC1B0B9FED188B19EE100A08F0DA
:103C5000FFFF41EC1C0B53EC1A2B08F0C7FC43D8B8
:103C600019EE100A08F0F4FF41EC1E0B53EC1A2B6E
:103C700008F0DCFA41EC1D0B9FED111BB0EE4D0A74
:103C8000F0EE6D0A07F000FAB0EE40CAF0EE60CA3E
:103C900053EC1B2B51EC1C0B08F0E4FC41EC180B13
:103CA0004BE00000200000200000000000000000A9
:103CB0000000000000000040000000000000744010
:103CC000000000000000E03F0000000000408F40C6
:103CD0000000000000006940CDCCCCCCCCCCEC3F47
:103CE0001C0000200000FA4405EB8500800106213D
:103CF00090FBF1F6304608F04EFC41EC1C0B19EE3F
:103D0000100A08F0A5FF53EC1A2B08F0B7FE1FEDC0
:103D1000120B53EC102B08F0A5FC53EC1C2B08F0F5
:103D200085FA53EC1B2BCDE900019DED000B51EC06
:103D3000100B08F023F941EC180B1FED1F0B53EC8F
:103D4000102B51EC180B08F08DFC41EC180B1FEDFB
:103D50002A0B53EC102B51EC180B08F081FD02D20A
:103D600051EC180B03E051EC180B08F0C8F841ECCB
:103D70001C0B1FED290B53EC102B08F037FC05D85A
:103D80001FED2D0BB0EE408AF0EE608AB0EE480ACF
:103D9000F0EE680A02B0BDEC108B70BD2DE9FE4359
:103DA00004468846174600EE104AB8EEC00AB5EE43
:103DB000C00AF1EE10FA0AD300EE104AB8EEC00ABB
:103DC000DFED700AB4EEE00AF1EE10FA06DD6EA245
:103DD0000121084602F019FE00BFFEE70A20FEF7A7
:103DE0003AFE00EE104AB8EEC00A6A48D0ED000A6A
:103DF00030EE600ABDEEC00A10EE105A002D01DC54
:103E0000012000E000208146002D01DD284600E071
:103E1000684200EB8000060100EE104AB8EEC00ACE
:103E20005C48D0ED000AB4EE600AF1EE10FA09D059
:103E30000020CDE900603B464246494602900520FD
:103E4000FFF718FA00EE104AB8EEC00A514880EDAC
:103E5000000A00EE906AF8EE600AB7EE001A60EE13
:103E6000810AB0EE600A41463846FFF79CFEBDE885
:103E7000FE83F0B52DED088B83B0B0EE408A054689
:103E80000E469FED450AB4EEC08AF1EE10FA06DC4C
:103E90009FED420AB4EEC08AF1EE10FA06D23AA2C1
:103EA0000121084602F0B1FD00BFFEE70A20FEF73F
:103EB000D2FD3B4890ED000A78EE408AF5EEC08ACC
:103EC000F1EE10FA01DC012000E00020074618EEB8
:103ED000900A08F0BDFE41EC1B0BB0EE4B0AF0EE71
:103EE0006B0A07F08DF8B0EE40AAF0EE60AA9FEDE5
:103EF0002D0B53EC102B51EC1A0B08F0B3FB41ECDB
:103F0000190B08F01BFB0446254890ED000AB4EE9F
:103F1000408AF1EE10FA09D00020CDE90040334686
:103F20002A46394602900620FFF7A4F9600000EE09
:103F3000900AF8EE600AB0EE600A29463046FFF7B4
:103F400032FE174880ED008A00EE904AF8EE600AD3
:103F5000B7EE001A60EE810AB0EE600A29463046DC
:103F6000FFF721FE03B0BDEC088BF0BD10B5C821F2
:103F70004FF47A709FED0D0AFFF77BFF10BD0C49DF
:103F800008607047000007436572726F723A4F55C0
:103F900054000000300000200000FA420000B4C2CB
:103FA0002C000020000000400A773940000000008B
:103FB0002400002080ED000AC0ED010A80ED021A05
:103FC000C0ED061A80ED082A704790ED032A80EDB7
:103FD000042A30EE602ADFEDFD2AB4EEE22AF1EE8B
:103FE00010FA08D230EE602ADFEDF92A32EE222AEA
:103FF00080ED032A15E030EE602ADFEDF62AB4EEFC
:10400000E22AF1EE10FA08DD30EE602ADFEDF02A48
:1040100032EE622A80ED032A03E030EE602A80ED62
:10402000032A90ED032AD0ED042A32EE622AD0ED65
:10403000022A22EE221A90ED032AD0ED002A62EE27
:10404000221A90ED052AD0ED032A90ED013A02EEF6
:10405000832A80ED052A90ED052AD0ED062AB4EEDC
:10406000E22AF1EE10FA04DD90ED062A80ED052A31
:1040700010E090ED052AD0ED062AF1EE622AB4EEAA
:10408000E22AF1EE10FA05D290ED062AB1EE422AAC
:1040900080ED052A31EE812AD0ED052A32EE222A62
:1040A00080ED072A90ED072AD0ED082AB4EEE22A27
:1040B000F1EE10FA04DD90ED082A80ED072A10E0F9
:1040C00090ED072AD0ED082AF1EE622AB4EEE22A3A
:1040D000F1EE10FA05D290ED082AB1EE422A80EDF9
:1040E000072A70471FB501210420FDF73EFABA48A0
:1040F000FEF723F90020ADF80C00ADF8060041F200
:104100008730029040F24730ADF8040000208DF86F
:104110000E0001A9B048FDF72AFC0121AE48FEF7C8
:10412000DBF801221146AC48FEF7C2F84FF4A0605C
:10413000FCF7BEF81E208DF8000001208DF803006A
:104140008DF801008DF802006846FCF7B6F81FBD37
:1041500010B5FFF7C7FF9FED9F2AF1EE0C1AB0EEE6
:10416000001ADFED9E0AB7EE080A9D48FFF722FF0E
:1041700010BD30B59B4C20609B4C21609B4C226055
:104180009B4C236000249B4D2C609B4C84ED000ACB
:1041900030BD2DE9F0412DED028B05460E46174648
:1041A0009846B0EE408A089C01218B48FDF768FCD8
:1041B000012240F225519148FEF723FB002090494F
:1041C0000860E620FFF7DBFE6CB9B0EE000A844819
:1041D00080ED000A9FED8B0A80ED010A9FED8A0AAF
:1041E00080ED020A42E0012C11D19FED880A7C4843
:1041F00080ED000A9FED830A80ED010A9FED840A9D
:1042000080ED020AB3EE0E0A80ED080A2EE0022CC1
:104210000DD1B1EE040A724880ED000A9FED790AD3
:1042200080ED010AB1EE040A80ED020A1EE0032CC3
:104230000DD1B0EE000A6A4880ED000A9FED750AC4
:1042400080ED010A9FED740A80ED020A0EE0042C55
:104250000CD1B0EE000A624880ED000A9FED6F0AB3
:1042600080ED010A9FED6C0A80ED020A9FED590A6C
:10427000B4EEC08AF1EE10FA06DD9FED550A38EE75
:10428000400AB0EE408A0CE09FED500AB4EEC08ABE
:10429000F1EE10FA05D29FED4E0A38EE000AB0EEAC
:1042A000408AB0EE480A43463A4631462846FFF770
:1042B00060FF00BF524800680028FBD00020504932
:1042C00008609FED570A464880ED080A00214248E1
:1042D000FDF7D6FB002240F225514848FEF791FA3F
:1042E0006420FEF7B8FB0120BDEC028BBDE8F08135
:1042F0002DE9F0412DED028B04460D4616461F4672
:104300009DED088ADDF8248001213348FDF7B8FBD4
:10431000012240F225513948FEF773FA002038494E
:104320000860B8F1000F0DD1B7EE080A2C4880EDF7
:10433000000A9FED3C0A80ED010AB0EE000A80ED14
:10434000020A0CE0B7EE080A254880ED000A9FED4E
:10435000230A80ED010AB0EE040A80ED020AB8EEED
:10436000C80A3B46324629462046FFF702FFBDEC0D
:10437000028BBDE8F08110B501211748FDF7AFFFB2
:1043800001287DD11B4800681949096888427ED8F8
:1043900025480078C8B1254A2549264801F082FB06
:1043A000224890ED020A244880ED000AD0ED000A70
:1043B000114890ED000A0A48FFF707FE1E4890EDED
:1043C000000A1E48D0ED000A3AE060E0000034C365
:1043D0000000B44300003443000800406F12833AE9
:1043E0000C02002040000020440000204800002073
:1043F00050000020540000203C00002000440040F9
:104400004C00002000000000CDCC4C3F3333534023
:104410006666E63FCDCC4C3DCDCCCC3E295C8F3D95
:1044200000006643CDCCCC3D5800002000020020A7
:10443000F4010020E80100203400002038000020B2
:10444000B4EE600AF1EE10FA08D17B4890ED000A54
:10445000F7EE000A30EE200A80ED000A774890ED72
:10446000020A774880ED000A764890ED070ABDEE13
:10447000C00A10EE102A744801687448006800E011
:104480001EE0FEF7FFFF0020714908600AE0714856
:10449000007838B9002211461046FEF7F3FF0120DC
:1044A0006B4908606C48006832306B4908606B48A3
:1044B0000078401C6949087001216948FDF720FF18
:1044C00010BD70B52DED028BF0EE408AB0EE608A23
:1044D00004460D460A20FEF7BEFA29462046FFF79D
:1044E000F3FAB0EE680AFFF724F9A9B2A0B20122EC
:1044F000B0EE680AFFF7F7F90A20FEF7ACFA294692
:104500002046FFF7E1FAB0EE480AFFF741F8A9B2FA
:10451000A0B20022B0EE480AFFF7E5F9BDEC028B2D
:1045200070BD70B52DED0E8B82B0F0EE408AB0EE0E
:10453000608AB0EE419AF0EE619A28EEA80A08EE81
:10454000080A10EE101A084608F082FB41EC1E0B18
:104550009FED441BB0EE4E0AF0EE6E0A06F094FD9D
:10456000B0EE40CAF0EE60CA19EE900A08F070FB97
:1045700041EC1D0B53EC1C2B07F058FE41EC1A0BC1
:104580009FED3A0BB0EE40BAF0EE60BA28EEA80A02
:1045900008EE080A10EE101A084608F059FB41EC24
:1045A0001D0B9FED301BB0EE4D0AF0EE6D0A06F0CC
:1045B0006BFDB0EE40CAF0EE60CA9FED2E0B53ECDF
:1045C000102B51EC1C0B08F04DF841EC1B0B00209C
:1045D000FFF7D5FC51EC1B0B07F0B0FF064618EEB9
:1045E000900A08F035FB41EC1D0B53EC1A2B08F038
:1045F00039F841EC1C0B07F071FF044618EE100A65
:1046000008F026FB41EC1D0B53EC1A2B08F02AF89E
:1046100041EC1C0B07F062FF05460120B0EE490A91
:1046200033460022214600902846FFF7B2FD02B033
:10463000BDEC0E8B70BD00005C000020000200206D
:10464000380000200C020020440000204000002020
:104650004C00002059000020540000205A00002087
:1046600000080040000000000000E03F00000000E3
:1046700000000000000000000000104000B58BB0FA
:1046800001210846FCF771FF01210846FCF724FFD1
:1046900002208DF828000E20099002208DF82900B4
:1046A00000208DF82A008DF82B0009A9FE48FCF7A0
:1046B00075FC01221146FC48FCF7FBFC012202219B
:1046C000F948FCF7F6FC01220321F748FCF7F1FC5E
:1046D0004FF08040FDF731FE0020ADF82000ADF82E
:1046E0001A0044F61F6007905320ADF81800002010
:1046F0008DF8220006A94FF08040FDF738F901A897
:10470000FDF7EEFA6020ADF804000020ADF81000CF
:104710000120ADF806000020039001A94FF0804071
:10472000FDF7F3F901A94FF08040FDF73BFA01A92D
:104730004FF08040FDF79CFA1C208DF8000001200E
:104740008DF801008DF802008DF803006846FBF734
:10475000B4FD01218807FDF793F94FF40271C806F3
:10476000FDF7F5FA4FF42271C806FDF7F2FA40F2B0
:10477000A2314807FDF7EFFA012211469007FDF735
:1047800097FD0BB000BD10B5044621464FF08040A8
:10479000FDF7DDFA10BD10B5044621464FF080400C
:1047A000FDF7D7FA10BD10B5044621464FF0804002
:1047B000FDF7D1FA10BD80ED010A0121C1607047FB
:1047C00010B52DED108B88B0B0EE40FAB0EE608AD7
:1047D000F0EE418A9FEDB50AF4EEC08AF1EE10FAD0
:1047E0003BD21FEE100A08F033FA41EC1A0B9FED92
:1047F000B00AC8EE800A10EE904A204608F028FA67
:1048000041EC1E0B9FEDAB1BB0EE4E0AF0EE6E0AB4
:1048100006F03AFCB0EE40CAF0EE60CAB0EE090A0B
:1048200028EE000A10EE101A084608F011FA41ECC2
:104830001D0B53EC1C2B07F015FF41EC1B0B53EC2D
:104840001A2B07F09BFB41EC190B07F065FB00EE00
:10485000100A08B0BDEC108B10BD9FED980AF4EE65
:10486000C08AF1EE10FA10D2F2EE000A88EE200AA9
:104870009FED8F1AC8EE810AB7EE041A28EE011ACE
:1048800011EE200A30EE0F0AE3E79FED890AF4EEFD
:10489000C08AF1EE10FA6AD21FEE100A08F0D8F9B9
:1048A00041EC1E0BB0EE010A28EE000A10EE101AC1
:1048B000084608F0CDF941EC190BDFED7D0A88EED2
:1048C000A00AF1EE090A68EE200A20EE200A10EE96
:1048D000104A204608F0BCF941EC1A0B9FED740A0F
:1048E000C8EE800A10EE904A204608F0B1F99FED1C
:1048F000711BCDE900019DED000B06F0C5FBB0EE8C
:1049000040CAF0EE60CAB8EE090A28EE000A10EEBE
:10491000101A084608F09CF941EC1D0B53EC1C2BB7
:1049200007F0A0FE41EC1B0B53EC1A2B07F026FB03
:1049300053EC192BCDE902019DED020B51EC100B4C
:1049400008F09CF853EC1E2BCDE904019DED040BFF
:1049500051EC100B07F012FBCDE906019DED060BA3
:1049600051EC100B07F0D8FA00EE100A71E73FEE99
:10497000080A6EE730B52DED108B85B00446E0686F
:1049800001287DD194ED040AF3EE040A30EE200AEA
:1049900084ED040A94ED040AD4ED050A80EE201A91
:1049A00011EE105A284608F053F941EC180B9FED10
:1049B000440B53EC102B51EC180B07F017FE04D8E6
:1049C00094ED000A84ED020AC7E09FED3F0B53EC23
:1049D000102B51EC180B07F043FF0ED894ED010A91
:1049E00084ED020A94ED010A84ED000A9FED380A75
:1049F00084ED040A0020E060AFE053EC182B9FED3B
:104A0000350B51EC100B07F02DFE41EC1B0B53EC5A
:104A1000182B07F027FE41EC1A0B53EC182B07F06C
:104A200021FE41EC190B53EC182B9FED2C0B51EC94
:104A3000100B07F017FE41EC1E0B53EC182B07F080
:104A400011FE41EC1D0B53EC182B07F00BFE41EC53
:104A50001C0B53EC182B07F005FE41EC1A0B53EC22
:104A6000182B9FED200B51EC100B07F0FBFD41ECD8
:104A70001F0B53EC182B07F0F5FD41EC1E0B00E06B
:104A800071E053EC182B07F0EDFD41EC1D0B53ECDE
:104A9000182B07F0E7FD41EC1C0B53EC182B07F02B
:104AA000E1FD41EC1B0B21E0000002400000484307
:104AB00000007A440000000000000040000048446C
:104AC0000000000000000000000000000000F03FB7
:104AD0000000000000000000000024400000000072
:104AE00000002E40000000000000184053EC1A2B7C
:104AF00007F0C4FF53EC192BCDE900019DED000B2D
:104B000051EC100B07F03AFACDE9020194ED010ADD
:104B1000D4ED000A30EE600A10EE101A084608F0D4
:104B200097F841EC1C0B9DED020B53EC102B07F09A
:104B300099FD41EC1A0B94ED000A10EE101A08468C
:104B400008F086F841EC1B0B53EC1A2B07F016FA11
:104B500041EC190B07F0E0F9A060D4ED020AB0EEC9
:104B6000600AA069804705B0BDEC108B30BDFE48DF
:104B70009FEDFE1AB4EEC10AF1EE10FA03D89FEDD4
:104B8000FB1AB0EE410A80ED010AC0ED050A0121D1
:104B9000C160704710B52DED028BB0EE408AF0EE8B
:104BA000608AB7EE000A38EE400AB0EE408AF04C58
:104BB00084ED018AC4ED058A0120E06000BFE06851
:104BC0000028FCD11E20FDF746FFBDEC028B10BD76
:104BD00010B5DFEDE80A9FEDE80AFFF7DBFF10BD37
:104BE00010B5DFEDE40AB7EE000AFFF7D3FF10BD02
:104BF00010B52DED028BF0EE408AB0EE608ADF4CEE
:104C0000C4ED018A84ED058A0120E06000BFE06800
:104C10000028FCD13220FDF71EFFBDEC028B10BD39
:104C2000D64880ED010AC0ED050A0121C160704738
:104C3000B7EE001A30EE411AB0EE410ACC4880EDD2
:104C4000010AC0ED050A0121C160704700BFC168BB
:104C50000029FCD1704710B501218807FDF73FFB03
:104C600060B1C148FFF786FEC148FFF783FEC34825
:104C7000FFF780FE01218807FDF742FB10BD2DE9FB
:104C8000FF412DED040B2DED108B06460F46F0EE87
:104C9000608A14461D46B0EE418A9FEDB90A38EE8F
:104CA000000AB0EE408A394630469DED100AFFF703
:104CB000E0F8B0EE40BAF0EE60BAEAB22146BDEEDE
:104CC000E80A10EE100AFFF769F8B0EE40FAF0EECD
:104CD00060FAA54890ED020A38EE400A10EE101A6C
:104CE000084607F0B5FF41EC1D0BB0EE4D0AF0EEA3
:104CF0006D0A06F085F9B0EE40CAF0EE60CA9FED8D
:104D0000A10B53EC102B51EC1C0B07F06FFC28D8B7
:104D1000954890ED020A38EE400A10EE101A084647
:104D200007F096FF41EC1E0BB0EE4E0AF0EE6E0A55
:104D300006F066F9B0EE40DAF0EE60DA9FED930B24
:104D400053EC102B51EC1D0B07F08CFC41EC1C0BB1
:104D50009FED900B53EC102B07F068FA41EC190B08
:104D60007BE1814890ED020A38EE400A10EE101AFD
:104D7000084607F06DFF41EC1D0BB0EE4D0AF0EE5A
:104D80006D0A06F03DF9B0EE40CAF0EE60CA9FED44
:104D9000830B53EC102B51EC1C0B07F027FC28D88D
:104DA000714890ED020A38EE400A10EE101A0846DB
:104DB00007F04EFF41EC1E0BB0EE4E0AF0EE6E0A0D
:104DC00006F01EF9B0EE40DAF0EE60DA9FED750BFA
:104DD00053EC102B51EC1D0B07F044FC41EC1C0B69
:104DE0009FED6C0B53EC102B07F020FA41EC190BE4
:104DF00033E15D4890ED020A38EE400A10EE101AD9
:104E0000084607F025FF41EC1D0BB0EE4D0AF0EE11
:104E10006D0A06F0F5F8B0EE40CAF0EE60CA9FEDFC
:104E2000610B53EC102B51EC1C0B07F0DFFB28D867
:104E30004D4890ED020A38EE400A10EE101A08466E
:104E400007F006FF41EC1E0BB0EE4E0AF0EE6E0AC4
:104E500006F0D6F8B0EE40DAF0EE60DA9FED530BD4
:104E600053EC102B51EC1D0B07F0FCFB41EC1C0B21
:104E70009FED480B53EC102B07F0D8F941EC190BC0
:104E8000EBE0394890ED020A38EE400A10EE101AB5
:104E9000084607F0DDFE41EC1D0BB0EE4D0AF0EECA
:104EA0006D0A06F0ADF8B0EE40CAF0EE60CA9FEDB4
:104EB000410B53EC102B51EC1C0B07F097FB28D83F
:104EC000294890ED020A38EE400A10EE101A084602
:104ED00007F0BEFE41EC1E0BB0EE4E0AF0EE6E0A7D
:104EE00006F08EF8B0EE40DAF0EE60DA9FED330BAC
:104EF00053EC102B51EC1D0B07F0B4FB41EC1C0BD9
:104F00009FED240B53EC102B07F090F941EC190B9B
:104F1000A3E0154890ED020A38EE400A10EE101A90
:104F2000084607F095FE41EC1D0BB0EE4D0AF0EE81
:104F30006D0A06F065F8B0EE40CAF0EE60CA9FED6B
:104F4000210B53EC102B51EC1C0B07F04FFB5CD8E2
:104F5000054890ED020A38EE400A10EE101A084695
:104F600007F076FE32E00000600000203333374265
:104F70007C000020000096430000204298000020A2
:104F8000333313410000000000003C4000000000EB
:104F900000005E400000000000002A400000000009
:104FA00000004940000000000000594000000000DF
:104FB000004055400000000000C0624000000000BA
:104FC000008051400000000000406F4041EC1E0B8B
:104FD000B0EE4E0AF0EE6E0A06F012F8B0EE40DACD
:104FE000F0EE60DA9FEDFE0B53EC102B51EC1D0B35
:104FF00007F038FB41EC1C0B1FED1A0B53EC102B88
:1050000007F014F941EC190B27E0F74890ED020A7C
:1050100038EE400A10EE101A084607F019FE41EC6F
:105020001E0BB0EE4E0AF0EE6E0A05F0E9FFB0EE90
:1050300040DAF0EE60DA1FED270B53EC102B51EC49
:105040001D0B07F00FFB41EC1C0B1FED2E0B53EC5F
:10505000102B07F0EBF841EC190B51EC190B06F093
:105060005BFF0CEE100AF0EE4C0AB0EE480AFFF7B8
:105070007EFDB0EE4F1AF0EE6F1AB0EE4B0AF0EE76
:105080006B0A05F0C7FFB0EE40CAF0EE60CAB0EEA2
:105090004C1AF0EE6C1AB0EE490AF0EE690A05F00F
:1050A000B9FFB0EE40AAF0EE60AA51EC1A0B07F07F
:1050B00015FA8046FDF7CFFC51EC1A0B07F00EFAFB
:1050C000BDEC108B08B0BDE8F0812DE9FF412DED5E
:1050D000040B2DED108B06460F46F0EE608A144649
:1050E0001D46B0EE418AF025E6274FF4FA641FED25
:1050F0005C0A38EE000AB0EE408A394630469DED33
:10510000100AFEF7B6FEB0EE40AAF0EE60AA2A46FC
:105110002146BDEEE80A10EE100AFEF73FFEB0EEA3
:1051200040FAF0EE60FAB04890ED020A38EE400A1C
:1051300010EE101A084607F08BFD41EC1D0BB0EE87
:105140004D0AF0EE6D0A05F05BFFB0EE40CAF0EEDE
:1051500060CA1FED740B53EC102B51EC1C0B07F0C5
:1051600045FA28D8A04890ED020A38EE400A10EE21
:10517000101A084607F06CFD41EC1E0BB0EE4E0A0B
:10518000F0EE6E0A05F03CFFB0EE40DAF0EE60DAC9
:105190001FED820B53EC102B51EC1D0B07F062FA44
:1051A00041EC1C0B1FED850B53EC102B07F03EF868
:1051B00041EC190B4FE18C4890ED020A38EE400AA1
:1051C00010EE101A084607F043FD41EC1D0BB0EE3F
:1051D0004D0AF0EE6D0A05F013FFB0EE40CAF0EE96
:1051E00060CA1FED920B53EC102B51EC1C0B07F017
:1051F000FDF928D87C4890ED020A38EE400A10EEFE
:10520000101A084607F024FD41EC1E0BB0EE4E0AC2
:10521000F0EE6E0A05F0F4FEB0EE40DAF0EE60DA81
:105220001FEDA00B53EC102B51EC1D0B07F01AFADD
:1052300041EC1C0B1FEDA90B53EC102B06F0F6FFF5
:1052400041EC190B07E1684890ED020A38EE400A7C
:1052500010EE101A084607F0FBFC41EC1D0BB0EEF7
:105260004D0AF0EE6D0A05F0CBFEB0EE40CAF0EE4E
:1052700060CA1FEDB40B53EC102B51EC1C0B07F064
:10528000B5F928D8584890ED020A38EE400A10EED9
:10529000101A084607F0DCFC41EC1E0BB0EE4E0A7B
:1052A000F0EE6E0A05F0ACFEB0EE40DAF0EE60DA39
:1052B0001FEDC20B53EC102B51EC1D0B07F0D2F974
:1052C00041EC1C0B1FEDCD0B53EC102B06F0AEFF89
:1052D00041EC190BBFE0444890ED020A38EE400A59
:1052E00010EE101A084607F0B3FC41EC1D0BB0EEAF
:1052F0004D0AF0EE6D0A05F083FEB0EE40CAF0EE06
:1053000060CA1FEDD40B53EC102B51EC1C0B07F0B3
:105310006DF928D8344890ED020A38EE400A10EEB4
:10532000101A084607F094FC41EC1E0BB0EE4E0A32
:10533000F0EE6E0A05F064FEB0EE40DAF0EE60DAF0
:105340001FEDE20B53EC102B51EC1D0B07F08AF90B
:1053500041EC1C0B1FEDF10B53EC102B06F066FF1C
:1053600041EC190B77E0204890ED020A38EE400A34
:1053700010EE101A084607F06BFC41EC1D0BB0EE66
:105380004D0AF0EE6D0A05F03BFEB0EE40CAF0EEBD
:1053900060CA1FEDF40B53EC102B51EC1C0B07F003
:1053A00025F930D8104890ED020A38EE400A10EE88
:1053B000101A084607F04CFC41EC1E0BB0EE4E0AEA
:1053C000F0EE6E0A05F01CFEB0EE40DAF0EE60DAA8
:1053D0009FED030B53EC102B51EC1D0B06E000006E
:1053E0000000000000004E406000002007F03AF985
:1053F00041EC1C0B9FED300B53EC102B06F016FF0D
:1054000041EC190B27E02E4890ED020A38EE400AD5
:1054100010EE101A084607F01BFC41EC1E0BB0EE14
:105420004E0AF0EE6E0A05F0EBFDB0EE40DAF0EE5B
:1054300060DA9FED240B53EC102B51EC1D0B07F0A1
:1054400011F941EC1C0B9FED1C0B53EC102B06F0DB
:10545000EDFE41EC190B51EC190B06F05DFD0CEE65
:10546000100AF0EE4C0AB0EE480AFFF780FBB0EEEF
:105470004F1AF0EE6F1AB0EE4A0AF0EE6A0A05F023
:10548000C9FDB0EE40CAF0EE60CAB0EE4C1AF0EEC4
:105490006C1AB0EE490AF0EE690A05F0BBFDB0EEF9
:1054A00040BAF0EE60BA51EC1B0B07F017F8BDECF8
:1054B000108B08B0BDE8F0810000000000002A4019
:1054C00060000020000000000000494010B5FFF718
:1054D000D5F810BD10B52DED028BB0EE408A9FEDD2
:1054E000240AC8EE000A9FED231A9FED230A00EE5E
:1054F000810ABCEEC00A10EE100A84B22046FFF703
:1055000042F9BDEC028B10BD10B52DED028BB0EE53
:10551000408A9FED170AC8EE000A9FED161A9FED0C
:10552000160A00EE810ABCEEC00A10EE100A84B220
:105530002046FFF730F9BDEC028B10BD10B52DED04
:10554000028BB0EE408A9FED0D0AC8EE000A9FED77
:10555000091A9FED090A00EE810ABCEEC00A10EE9E
:10556000100A84B22046FFF71EF9BDEC028B10BD75
:10557000000087430000FA440000FA430000B443EF
:105580001CB501210420FBF7A7FF00208DF80400C3
:105590004FF40070009002208DF8050001208DF876
:1055A000070069460548FBF7F9FC1CBD10B54FF430
:1055B00000710248FBF754FD10BD000000080240D6
:1055C00010B50120FBF750FC28B17220FDF757FB06
:1055D0000120FBF754FC10BD00B585B00121084641
:1055E000FBF77AFF01218803FBF7D0FF012003902E
:1055F00000208DF8100002208DF8130003A9124836
:10560000FBF7CCFC00210846FCF7CBF80120019009
:1056100000208DF8080008208DF8090001208DF881
:105620000A0001A8FBF7BAFB06208DF80000002055
:105630008DF801008DF8020001208DF80300684606
:10564000FAF73BFE05B000BD0000024010B54FF474
:1056500000712448FBF729FD4FF480612148FBF7D6
:1056600024FD10BD1CB501212020FBF735FF0120D2
:105670008DF8040000208DF8060002208DF805004A
:105680004FF4C060009069461648FBF787FC012183
:105690000846FBF721FF01208DF8040000208DF85B
:1056A000060002208DF80500C001009069460E48F2
:1056B000FBF774FCFFF7CAFF1CBD10B54FF4007177
:1056C0000848FBF7F2FC10BD10B54FF480610548A7
:1056D000FBF7EBFC10BD10B54FF480710248FBF7EF
:1056E000E4FC10BD001402400000024010B588B078
:1056F000044601210420FBF7EFFE01212020FBF7E7
:1057000045FF082206213A48FBF7D3FC082207216F
:105710003748FBF7CEFCC020069002208DF81C0015
:1057200000208DF81E0002208DF81D0001208DF84C
:105730001F0006A92E48FBF731FC47208DF8040016
:1057400001208DF8050000208DF8060001208DF85D
:10575000070001A8FAF7B1FD02940020ADF80C0093
:10576000ADF80E00ADF81000ADF814000C20ADF847
:10577000120002A91F48FCF706FF012240F2255142
:105780001C48FDF73EF801211A48FCF784FF08B0D9
:1057900010BD70B50446002510E0605D68B1615D24
:1057A0001448FCF7A3FF00BF80211248FDF74EF814
:1057B0000028F9D0681CC5B200E070BDEDE770B5F7
:1057C000044600250FE05CB121460A48FCF78EFF35
:1057D00000BF80210748FDF739F80028F9D000E024
:1057E00070BD681CC5B2032DEDDB00BFF8E70000FB
:1057F0000008024000140140704710B588B004460C
:1058000001210820FBF768FE01214804FBF7ADFEEB
:105810002020069002208DF81C008DF81D0000202D
:105820008DF81E0001208DF81F0006A9E048FBF747
:10583000B5FB4020069000208DF81F0006A9DC482B
:10584000FBF7ACFB07220521D948FBF732FC072206
:105850000621D748FBF72DFC02940020ADF80C0080
:10586000ADF80E00ADF81000ADF814000C20ADF846
:10587000120002A9CF48FCF786FE012240F2255112
:10588000CC48FCF7BEFF0121CA48FCF704FF4FF4E7
:10589000A060FAF70DFD26208DF8040000208DF899
:1058A00005008DF8060001208DF8070001A8FAF721
:1058B00004FD08B010BD70B5012424E0BE4951F8C4
:1058C0002400FFF79AFFBC4850F8240000EE100AAD
:1058D000B8EE400AB94880ED000A022500BF00205A
:1058E000B74908700321342000F007FC6420FDF75D
:1058F0006FF8B348007810B1FFF77EFF70BD6D1EE2
:10590000002DECD1641C0A2CD8DB00BFF6E710B5E3
:1059100004462046FDF75CF810BD10B500222EE0CD
:10592000362806D039280BD03C2810D03F281CD16F
:1059300014E0A34B1B7843F00103A14C23701BE040
:105940009F4B1B7843F002039D4C237014E09C4B4B
:105950001B7843F008039A4C23700DE0984B1B789A
:1059600043F00403964C237006E0954B1B7843F0FC
:105970008003934C237000BF00BF401C521C8A421E
:10598000CED310BD70B504460D4600260CE000BF16
:1059900080218848FCF75AFF0028F9D014F8011B31
:1059A0008448FCF7A3FE761CAE42F0D300BF402132
:1059B0008048FCF74BFF0028F9D070BD70B5044655
:1059C0000D4629462046FFF7DDFF70BD10B500F0FB
:1059D000C1FE4FF4E130FFF710FF5021002000F02E
:1059E00060FC784800F029F9774800F0D1FA774850
:1059F00000F07AFCFFF75FFF10BD10B540F22551B3
:105A00006C48FCF739FF58B16A48FCF773FEC4B222
:105A1000204600F088F940F225516648FCF767FF00
:105A200010BD10B504466A4801780078401C684AE9
:105A300010706848445410460078032800DA10BDFE
:105A400063480078322802DB002061490870604812
:105A5000007803281DDB5F4840780D280FD15D4892
:105A600080780A280BD15B4800785B4908703221A6
:105A7000584805F076F900205549087009E0554866
:105A80004078544908700846807848700220504990
:105A9000087000BFD3E75048007800BFFF204E4990
:105AA0000870704770B50346DFED4C0AB0EE600A2F
:105AB000434C2478002C79D0002029E000F13404F4
:105AC000474D35F9144000EE904AF8EEE00A9FED9C
:105AD000451AC0EE811AF3EE000A61EEA00A03EB4C
